:100000000C9491000C945D030C9436030C94B9008D
:100010000C94B9000C94B9000C94B9000C94B9007C
:100020000C94B9000C94B9000C94B9000C94B9006C
:100030000C94B9000C94B9000C94B9000C94B9005C
:100040000C94EC020C94B9000C9414090C94EE0876
:100050000C94B9000C94B9000C94B9000C94B9003C
:100060000C94EF060C94B900CB0BD20BDB0B280CD5
:10007000E40BED0BF60B280C380C450D4E0D080C5F
:100080000F0C180C210C380C4E0C450D4E0D080CA5
:100090000F0C180C210C4E0C084AD73B3BCE016EBE
:1000A00084BCBFFDC12F3D6C74319ABD56833DDACF
:1000B0003D00C77F11BED9E4BB4C3E916BAAAABEDE
:1000C000000000803F0000000000230026002900FF
:1000D0000000000800020100000304070000000007
:1000E0000000000000000000250028002B00000098
:1000F0000000240027002A0004040404040404046B
:1001000002020202020203030303030301020408C2
:100110001020408001020408102001020408102071
:10012000460911241FBECFEFD8E0DEBFCDBF11E0DE
:10013000A0E0B1E0E4EDFFE102C005900D92AE3425
:10014000B107D9F722E0AEE4B1E001C01D92A33FB0
:10015000B207E1F710E0C1E9D0E004C02197FE0149
:100160000E94810DC039D107C9F70E9491090C94F2
:10017000E80F0C940000FC01918D828D981761F0BE
:10018000828DDF01A80FB11D5D968C91928D9F5FCE
:100190009F73928F90E008958FEF9FEF0895FC0179
:1001A000918D828D981731F0828DE80FF11D858D2C
:1001B00090E008958FEF9FEF0895FC01918D228DBF
:1001C000892F90E0805C9F4F821B91098F73992744
:1001D000089580E090E0892B29F00E946708811142
:1001E0000C9400000895833081F028F4813099F058
:1001F0008230A1F008958730A9F08830B9F08430BA
:10020000D1F4809180008F7D03C0809180008F7732
:1002100080938000089584B58F7702C084B58F7D68
:1002200084BD08958091B0008F7703C08091B000A5
:100230008F7D8093B00008950895F8942091320244
:10024000233021F420919C0121110FC02091320212
:10025000233011F4789407C0DC01ED91FC91028801
:10026000F389E02D099580E00895DC01ED91FC9182
:100270000488F589E02D61E0099581E00895809179
:10028000A8019091A901DC01ED91FC910484F58510
:10029000E02D09948EBD00000DB407FEFDCF8EB594
:1002A0000895089585ED8093BC008091BC0084FD85
:1002B000FCCF1092D001089540917101262F30E0BB
:1002C000240F311D21323105DCF42091D00124307E
:1002D000C9F4FC0180E090E0861758F43091710178
:1002E0002191DC01A15BBE4FA30FB11D2C930196A0
:1002F000F3CF80917101680F6093710180E00895E0
:1003000081E0089582E00895089581E090E03091C1
:10031000A7012091A601321710F480E090E091959A
:100320008195910908958091A7019091A60189175F
:1003300030F48F5F8093A70180E090E008958FEF05
:100340009FEF08958091A60190E02091A701821B64
:1003500091090895CF92DF92EF92FF920F931F932E
:10036000CF93DF937C01262F972F8A018091F30191
:10037000882391F0C62FD72F6E01C40ED51ECC1541
:10038000DD0571F06991D701ED91FC910190F0814B
:10039000E02DC7010995F3CF642F822F0E945C01E5
:1003A000C801DF91CF911F910F91FF90EF90DF90E7
:1003B000CF900895CF93DF931F92CDB7DEB76983B7
:1003C0002091F3012223D1F02091F101203240F05D
:1003D00021E030E0FC013383228380E090E015C00F
:1003E0008091F201E82FF0E0EF52FE4F9981908367
:1003F0008F5F8093F2018093F10105C061E0CE012F
:1004000001960E945C0181E090E00F90DF91CF9116
:100410000895FC01848DDF01A80FB11DA35ABF4FC1
:100420002C91848D90E001968F739927848FA689F3
:10043000B7892C93A089B1898C9180648C93938D1A
:10044000848D981306C00288F389E02D80818F7D0A
:10045000808308951F93CF93DF93282F30E0F90115
:10046000E053FF4F8491F901E45FFE4FD491F9010D
:10047000E850FF4FC491CC23C9F0162F81110E9480
:10048000F300EC2FF0E0EE0FFF1FEC51FF4FA591B2
:10049000B4918FB7F894111105C09C91ED2FE095A0
:1004A000E92302C0EC91ED2BEC938FBFDF91CF914C
:1004B0001F910895CF93DF93EC0161E08A810E9440
:1004C0002A0289858CBD8A858DBD7894DF91CF9174
:1004D0000895FC01F8948CB581878DB582878CB521
:1004E000837F8CBD8CB58F7D8CBD8CB58C7F8CBD96
:1004F0008DB58E7F8DBD60E082810C942A022FB76E
:10050000F8946091A2017091A3018091A40190914F
:10051000A5012FBF08953F924F925F926F927F92F5
:100520008F929F92AF92BF92CF92DF92EF92FF9203
:100530000F931F93CF93DF93EC01162F5A01922E46
:10054000302E812CCE2CD12CE12CF12CE881F9819C
:100550000190F081E02D01E0292DA501612FCE0150
:1005600009950E947F022B013C010E947F02DC0161
:10057000CB0184199509A609B7098C159D05AE050F
:10058000BF05A0F4E881F9810480F581E02DCE015A
:100590000995882351F390919B01911711F01F3F0A
:1005A00021F790919801911105C0DFCF8394381401
:1005B00068F680E0DF91CF911F910F91FF90EF904F
:1005C000DF90CF90BF90AF909F908F907F906F9073
:1005D0005F904F903F9008951F920F920FB60F9229
:1005E00011242F933F938F939F93AF93BF93809149
:1005F000A2019091A301A091A401B091A501309115
:10060000A10123E0230F2D3720F40196A11DB11D78
:1006100005C026E8230F0296A11DB11D2093A1015C
:100620008093A2019093A301A093A401B093A5018C
:1006300080919D0190919E01A0919F01B091A00198
:100640000196A11DB11D80939D0190939E01A093E1
:100650009F01B093A001BF91AF919F918F913F9166
:100660002F910F900FBE0F901F9018951F920F9211
:100670000FB60F9211242F933F934F935F936F9375
:100680007F938F939F93AF93BF93EF93FF93E091EB
:100690000201F09103010995FF91EF91BF91AF9194
:1006A0009F918F917F916F915F914F913F912F918A
:1006B0000F900FBE0F901F9018951F920F920FB6BC
:1006C0000F9211242F933F934F935F936F937F93D8
:1006D0008F939F93AF93BF93EF93FF93E0910001AC
:1006E000F09101010995FF91EF91BF91AF919F9119
:1006F0008F917F916F915F914F913F912F910F90CB
:100700000FBE0F901F9018950F931F93CF93DF93F9
:1007100000D0CDB7DEB78C01DC01ED91FC91008CEF
:10072000F18DE02D4A83698309956981862F806860
:100730000E944A014A81842F0E944A01D801ED910A
:10074000FC91028CF38DE02DC8010F900F90DF918A
:10075000CF911F910F9109941F93CF93DF93EC01D9
:10076000162F611102C045E501C04DE56AE5CE01D5
:100770000E948403111102C040E701C04CE76CE500
:10078000CE01DF91CF911F910C948403EF92FF92E1
:100790001F93CF93DF931F92CDB7DEB77C01DC01AF
:1007A000ED91FC91008CF18DE02D698309956981B3
:1007B000862F8F770E944A0180E00E944A01182FFD
:1007C000D701ED91FC91028CF38DE02DC7010995C5
:1007D000812F0F90DF91CF911F91FF90EF9008959F
:1007E000CF93DF93EC016887611102C04AE101C039
:1007F0004FE063E1CE010E9484038885882341F0A5
:1008000061E1CE010E94C6038F71482F406602C08D
:100810004F81406861E1CE01DF91CF910C94840358
:10082000CF93DF93EC011092F40110929B01109290
:100830009A0110929C0110929901109298011092C5
:1008400097011092960168E20E94C60382FF0AC0D7
:100850006DE3CE010E94C603482F44606DE3CE01D4
:100860000E94840340E465E2CE010E948403E88193
:10087000F9810488F589E02D63E0CE01DF91CF9105
:100880000994CF93DF93209132022330C9F4209151
:100890009C01211115C0EC0164E20E94C60390E0A6
:1008A0009195819591098C349F4F54F4E881F98199
:1008B0000488F589E02D61E0CE01099581E001C051
:1008C00080E0DF91CF910895EF92FF921F93CF9335
:1008D000DF93EC0180913202833001F568E2CE01B2
:1008E0000E94C60382FD2EC019C08091F4018D3391
:1008F00030F4E091F401F0E0EB50FE4F1082E8811B
:10090000F981028CF38DE02DCE010995E881F98102
:100910000488F589E02D63E0CE01099564E2CE01FB
:100920000E94C60390E091958195910995958795D0
:100930009093970180939601DF91CF911F91FF9043
:10094000EF900895E881F9810488F589E02D61E050
:10095000CE010995E881F981008CF18DE02DCE0161
:10096000099580E00E944A0180E00E944A0180933C
:100970009C0180919C018334D0F480919C018093F0
:100980009C0180E00E944A0180939A018E8181112E
:1009900009C090919A018D81981721F080919A0158
:1009A0008F3F39F480919C01833018F017C082E4A6
:1009B000E6CF10929C01E881F981028CF38DE02D45
:1009C000CE010995E881F9810288F389E02DCE01F5
:1009D000DF91CF911F91FF90EF90099480919C013E
:1009E00083508093F40180E00E944A0180939B0130
:1009F00080E00E944A01982F907890939801982F58
:100A0000907490939901E881F9810684F785E02D2F
:100A1000682FCE01099510E08091F401181708F0B5
:100A200064CFE12EF12C80E00E944A01F701EB50E7
:100A3000FE4F80831F5FF0CFCF92DF92EF92FF9245
:100A40000F931F93CF93DF93EC01F62ED42EC52E78
:100A5000122FE881F9810488F589E02D61E009957C
:100A600067E2CE010E94C60387FFFACF40E065E24D
:100A7000CE010E9484031E3308F01DE3E11004C080
:100A8000002321F000E403C000E801C000E0E88199
:100A9000F981008CF18DE02DCE01099580E80E944E
:100AA0004A0183E0810F0E944A018F2D0E944A0172
:100AB0008D810E944A01802F0E944A010D2DED2C4C
:100AC000FC2C8E2D801B811730F4F70181917F0162
:100AD0000E944A01F6CFE881F981028CF38DE02D66
:100AE000CE010995E881F9810488F589E02D64E05B
:100AF000CE0109950E947F026B017C012B8130E0C1
:100B0000F901E053FF4F8491F901E45FFE4F049136
:100B1000F901E850FF4F14911123F1F081110E9467
:100B2000F300E12FF0E0EE0FFF1FEA53FF4FA59116
:100B3000B491EC91E02381F0E881F9810488F58992
:100B4000E02D61E0CE01DF91CF911F910F91FF90D9
:100B5000EF90DF90CF9009940E947F02DC01CB01DF
:100B60008C199D09AE09BF09883E9340A105B105C6
:100B700008F4C4CFE1CF4F925F926F927F92AF9211
:100B8000BF92CF92DF92EF92FF920F931F93CF937A
:100B9000DF93EC015B01F42E1092990110919B01FF
:100BA000C0909601D09097016DE30E94C603482F34
:100BB00044606DE3CE010E9484030E947F022B01FA
:100BC0003C01CE010E944104882311F110939B0146
:100BD000E881F9810088F189E02DEE24E39400E0BA
:100BE0002F2DA501612FCE010995D0929701C092BA
:100BF0009601DF91CF911F910F91FF90EF90DF90C1
:100C0000CF90BF90AF907F906F905F904F9008957E
:100C10000E947F02DC01CB0184199509A609B7095E
:100C2000883E9340A105B10588F6E881F9810480EA
:100C3000F581E02DCE010995C4CF8F929F92AF929E
:100C4000BF92CF92DF92EF92FF920F931F93CF93B9
:100C5000DF93EC01162F6A01F22E6DE30E94C603AA
:100C6000482F44606DE3CE010E9484030E947F02FE
:100C70004B015C01CE010E9441048823C1F0E88150
:100C8000F9810088F189E02DE12C2F2DA601612F3B
:100C9000CE010995DF91CF911F910F91FF90EF90B9
:100CA000DF90CF90BF90AF909F908F9008950E945B
:100CB0007F02DC01CB0188199909AA09BB09883E8A
:100CC0009340A105B105D8F6E881F9810480F5814A
:100CD000E02DCE010995CECFCF93DF93EC016032AA
:100CE00008F06FE16F838885882311F066956F8324
:100CF00061E1CE010E94C603807E9F81482F492B6F
:100D000061E1CE01DF91CF910C9484031F93CF93C7
:100D1000DF9320913202621709F45DC0162FEC01B7
:100D20006230E9F168F4662309F440C0613009F0EB
:100D300052C061E00E94C603837E482F44603BC0DE
:100D40006330B9F0643009F046C061E00E94C60328
:100D5000837E482F4C6061E0CE010E948403888529
:100D6000882369F1E881F9810688F789E02D61E03F
:100D700013C061E00E94C603837E482F406161E09A
:100D8000CE010E94840388858823C9F0E881F98117
:100D90000688F789E02D60E0CE01099510C061E07A
:100DA0000E94C603837E482F486005C061E00E9410
:100DB000C603482F437E61E0CE010E9484038091E8
:100DC0003202811106C067E2CE010E94C60387FF8E
:100DD000F6CF10933202DF91CF911F9108951F92A9
:100DE0000F920FB60F9211242F933F934F935F935F
:100DF0006F937F938F939F93AF93BF93EF93FF93E3
:100E00008091B900887F803609F49CC068F58832EB
:100E100009F45BC090F4803109F454C038F488239D
:100E200009F4F6C0883009F44DC0F6C0883109F4E1
:100E30004CC0803209F45DC0EFC0803409F468C052
:100E400048F4803309F455C0883309F0E5C0809335
:100E5000CE01D8C0803509F44FC0883509F45DC093
:100E6000883409F0D9C0D6C0883909F4C7C0A8F4BD
:100E7000883709F467C038F4883609F463C08037CE
:100E800009F460C0C9C0883809F4B8C0803909F4D1
:100E90005FC0803809F0C0C05BC0803B09F486C0E9
:100EA00038F4803A09F466C0883A09F47FC0B4C0C7
:100EB000803C09F4A7C0883C09F4A4C0883B09F42D
:100EC0008AC0AAC08091AB0110C09091CD018091E1
:100ED000CC01981770F5E091CD0181E08E0F8093E1
:100EE000CD01F0E0E455FE4F80818093BB0085EC9E
:100EF00086C08093CE018EC0E091CD0181E08E0F3F
:100F00008093CD018091BB00F0E0E455FE4F8083DB
:100F10009091CD018091CC016EC0E091CD0181E036
:100F20008E0F8093CD018091BB00F0E0E455FE4F21
:100F300080838091CF0181116DC081E08093AA01EF
:100F400084EA61C083E08093D00110929501CFCFF5
:100F500080919501803208F051C0E091950181E0C7
:100F60008E0F809395018091BB00F0E0EB58FE4F0F
:100F70008083BDCF85EC8093BC001092D00180911E
:100F80009501803230F4E0919501F0E0EB58FE4F8E
:100F900010826091950170E0E0917301F09174010D
:100FA00085E791E009951092950136C084E0809321
:100FB000D0011092720110927101E0916F01F091D5
:100FC0007001099580917101811105C081E08093C4
:100FD000710110924F01E091720181E08E0F8093B8
:100FE0007201F0E0E15BFE4F80818093BB00909145
:100FF000720180917101981708F479CF85E8809388
:10100000BC000AC085EC8093BC001092D00104C0E3
:101010001092CE010E945201FF91EF91BF91AF91CA
:101020009F918F917F916F915F914F913F912F9100
:101030000F900FBE0F901F90189590E0FC01E45F99
:10104000FE4F2491FC01E850FF4F8491882399F0D2
:1010500090E0880F991FFC01E251FF4FA591B491D8
:10106000FC01EC51FF4F859194918FB7F894EC916E
:10107000E22BEC938FBF0895CF92DF92EF92FF9215
:101080000F931F93CF93DF936C017A018B01C0E024
:10109000D0E0CE15DF0589F0D8016D918D01D60124
:1010A000ED91FC910190F081E02DC6010995892B0D
:1010B00011F47E0102C02196ECCFC701DF91CF91E0
:1010C0001F910F91FF90EF90DF90CF9008958FE3E5
:1010D00092E00E94DD0021E0892B09F420E0822FBC
:1010E0000895009769F0FC0101900020E9F731971D
:1010F000AF01481B590BBC018FE392E00C943C08F4
:1011000080E090E008950E94E30FEF92FF920F932A
:101110001F93CF93DF93EC0181E0888F9B8D8C8DA3
:10112000981305C0E889F989808185FD24C0F62ED1
:101130000B8D10E00F5F1F4F0F731127E02E8C8D6A
:10114000E8120CC00FB607FCFACFE889F989808154
:1011500085FFF5CFCE010E940902F1CF8B8DFE01F4
:10116000E80FF11DE35AFF4FF0820B8FEA89FB89EC
:101170008081806207C0EE89FF896083E889F989F0
:1011800080818064808381E090E0DF91CF911F9126
:101190000F91FF90EF900895CF93DF93EC01888D2E
:1011A0008823C9F0EA89FB89808185FD05C0A8896B
:1011B000B9898C9186FD0FC00FB607FCF5CF8081F1
:1011C00085FFF2CFA889B9898C9185FFEDCFCE013B
:1011D0000E940902E7CFDF91CF9108951F920F92ED
:1011E0000FB60F9211242F933F934F935F936F93FA
:1011F0007F938F939F93AF93BF93EF93FF938FE36F
:1012000092E00E940902FF91EF91BF91AF919F91EF
:101210008F917F916F915F914F913F912F910F909F
:101220000FBE0F901F9018951F920F920FB60F923E
:1012300011242F938F939F93EF93FF93E0914F028D
:10124000F09150028081E0915502F091560282FDAA
:1012500012C09081809158028F5F8F732091590244
:10126000821751F0E0915802F0E0E15CFD4F958F5C
:101270008093580201C08081FF91EF919F918F91DF
:101280002F910F900FBE0F901F901895EFE3F2E093
:101290001382128288EE93E0A0E0B0E0848395830D
:1012A000A683B78328E031E03183208325EC30E04A
:1012B0003587248724EC30E03787268720EC30E020
:1012C000318B208B21EC30E0338B228B22EC30E011
:1012D000358B248B26EC30E0378B268B118E128ECB
:1012E000138E148EECEDF2E01382128284839583C8
:1012F000A683B78388E191E091838083E8EEF2E0F2
:1013000088E291E0918380838AE0828382E0838314
:10131000148281E08093320216828FE187831086E7
:101320000895CF93DF93CDB7DEB7AE970FB6F8949D
:10133000DEBF0FBECDBF789484B5826084BD84B516
:10134000816084BD85B5826085BD85B5816085BDC0
:1013500080916E00816080936E0010928100809178
:101360008100826080938100809181008160809300
:101370008100809180008160809380008091B10025
:1013800084608093B1008091B00081608093B00050
:1013900080917A00846080937A0080917A008260E4
:1013A00080937A0080917A00816080937A008091A6
:1013B0007A00806880937A001092C100E0914F0219
:1013C000F091500292E0F92EF082E0914B02F09100
:1013D0004C021082E0914D02F0914E028FEC80831E
:1013E00010925702E0915302F091540226E0E22E4F
:1013F000E082E0915102F09152028081806180830D
:10140000E0915102F0915202808188608083E091E6
:101410005102F0915202808180688083E0915102F4
:10142000F091520280818F7D80831092A7011092EB
:10143000A6011092F2011092F1011092D001DD2468
:10144000D394D092CF011092AA0161E082E10E9470
:101450002A0261E083E10E942A028091B9008E7F16
:101460008093B9008091B9008D7F8093B90088E4A2
:101470008093B80085E48093BC008EE28E010F5FFC
:101480001F4FF801982F11929A95E9F7D98224E01D
:101490002A83FB8293E09D83FE822F8330E438878A
:1014A00025E029879A87EB8693E39C8727E02D87A1
:1014B00098E09F8799E0998B99E19B8B92E49C8BB4
:1014C00045E24D8B3E8B36E23F8B288F28E2298FF9
:1014D00020E12A8F29E22B8F2CED2C8F8D8F88E82D
:1014E0008E8F8FE28F8F8DE288A380E389A327E31D
:1014F0002BA320E92CA328E32DA39EA39CE39FA369
:101500009FE898A79DE399A792E19AA79FE69BA7DA
:101510008CA78FEF8DA784EE8E8780EC888B61E09F
:101520008091EA020E942A028091EA020E941D082C
:10153000FFB6F89480913302811124C0E2E0F1E01B
:101540008491E6E1F1E09491E82FF0E0EE0FFF1FC7
:10155000E251FF4FA591B491EC91E92321F461E0B0
:101560008AE00E942A028AE00E941D088CB58061F0
:101570008CBD8CB580648CBD8DE00E941D088BE015
:101580000E941D08809133028F5F80933302FFBE5B
:101590000E947F026B017C014AEA6FE288EE92E0D2
:1015A0000E9484036FE288EE92E00E94C6038A3AAA
:1015B00061F00E947F02DC01CB018C199D09AE090C
:1015C000BF09C297A105B10538F30E947F026B01E4
:1015D0007C0145E56FE288EE92E00E9484036FE2B1
:1015E00088EE92E00E94C603853561F00E947F027A
:1015F000DC01CB018C199D09AE09BF09C297A10579
:10160000B10538F3F12CF801EF0DF11DEF0DF11DCF
:1016100060816F3F39F0418188EE92E00E9484033F
:10162000F394F1CF61E088EE92E00E9486066DE3CC
:1016300088EE92E00E94C603482F4E7F6DE388EE4D
:1016400092E00E9484036091F00288EE92E00E9492
:10165000F00361E088EE92E00E9486060E947F021D
:101660006B017C0167E288EE92E00E94C60387FD71
:101670000CC00E947F02DC01CB018C199D09AE09D0
:10168000BF09C297A105B10568F30E947F02DC0182
:10169000CB018C199D09AE09BF09C297A105B105FF
:1016A00030F58091EC028230C8F4E82FF0E0EE0FC4
:1016B000FF1FE050FF4F2FE331E031832083813063
:1016C00039F080916900836080936900E89A06C0D0
:1016D000809169008C6080936900E99A88EE92E0BD
:1016E0009093A9018093A80181E08093ED0261E0CD
:1016F00088EE92E00E94F00384E491E00E94710879
:101700008AE491E00E9471081AE0812E912CA12CAC
:10171000B12C88EE92E00E941D01882309F4B2C129
:1017200080913D0290913E0245EF51E0FA012091F7
:10173000F4013E2F341B321718F481919191F7CFA9
:1017400090933E0280933D028B30910534F04E978A
:1017500090933C0280933B0207C08A30910541F090
:1017600090933A028093390210923E0210923D0209
:101770002091390230913A0237FD84C180913B02B9
:1017800090913C02039688309105B8F58C5C9F4F90
:10179000FC010C94810DC12CD12CB8ECEB2EB1ECDA
:1017A000FB2E2EC0AEEACA2EA7E4DA2EA5E0EA2E62
:1017B000A1ECFA2E25C0FEEACF2EF7E4DF2EF5E8E5
:1017C000EF2EF1ECFF2E1CC0EEEACE2EE7E4DE2E6B
:1017D000E5E8EE2EE1E4FE2E13C07EEAC72E77E4A4
:1017E000D72E75E0E72E71E4F72E0AC0C12CD12C5C
:1017F00068ECE62E61E4F62E03C0C12CD12C7601F4
:101800002830310560F5F901E45CFF4F0C94810D3F
:10181000412C512C5CEB652E51E4752E41C047EDF7
:10182000442E43EA542E4AEF642E41E4742E38C00D
:101830003AE9432E39E9532E3CE1632E32E4732E0C
:101840002FC0412C512C2CE3622E22E4722E28C092
:101850002830310508F42BC1C12CD12C760120E0B1
:1018600030E0A901CA01B9010E94B60D811112C070
:1018700020E030E0A901C701B6010E94B60D87FD46
:101880002FC020E030E0A901C701B6010E94FF0E81
:1018900018164CF1412C512C320102C0260137019F
:1018A00020E030E0A901C701B6010E94B60D8823EF
:1018B000E9F0A7019601C301B2010E94BB0D0E948D
:1018C000870D20E030E044E353E40E940C0F20ED4C
:1018D0003FE049E450E40E94BB0D0E942D0E08C079
:1018E00066EA7FEF05C06AE570E002C060E070E084
:1018F00070933802609337026B01770FEE08FF0890
:10190000F7FE26C0E0913F02F09140020190F08185
:10191000E02D6DE28FE392E0099522273327A9019C
:101920002C193D094E095F0919A28E010F5D1F4F49
:10193000CA01B901A50194010E945F0D605DF80123
:1019400062938F01211531054105510589F715C0B5
:10195000A701960119A28E010F5D1F4FCA01B9019F
:10196000A50194010E945F0D605DF80162938F01F3
:10197000211531054105510589F7C8010E947108FB
:101980008AE491E00E9471088091370290913802B8
:1019900097FF0EC09195819591099093380280939D
:1019A000370281E090E0909336028093350204C0C4
:1019B000109236021092350281E08093F30188E0A4
:1019C000809334021092F2011092F101609137027B
:1019D0008CED92E00E94DA01609135028CED92E08C
:1019E0000E94DA018091F101813208F045C09091A6
:1019F000D0019111FCCF92E09093D00191E09093AF
:101A0000CF019FEF9093CE011092CD018093CC0136
:101A1000A1EDB1E02CEA31E0F9019E2F921B98175D
:101A200018F49D919193F9CF1092AB018091AB0185
:101A300080618093AB018091AA01813061F41092A2
:101A4000AA018091AB018093BB008091BC0083FD13
:101A5000F8CF85EC01C085EE8093BC008091D00169
:101A60008230E1F38091CE018F3F31F08091CE0141
:101A7000803211F08091CE011092F2011092F101AA
:101A80001092F3010E94E90044CE9CE5492E9FE8A4
:101A9000592E9AEE692E90E4792E02CF8CE5482ECD
:101AA0008FE8582E8AE7682E81E4782EF9CEF90166
:101AB000EC5BFF4FC12CD12C76010C94810DA1E27F
:101AC0001A2EAA1BBB1BFD010DC0AA1FBB1FEE1FB8
:101AD000FF1FA217B307E407F50720F0A21BB30B03
:101AE000E40BF50B661F771F881F991F1A9469F77F
:101AF00060957095809590959B01AC01BD01CF01DB
:101B00000895EE0FFF1F0590F491E02D0994DF93E7
:101B1000DD27B92FBF7740E85FE3161617064807A1
:101B20005B0718F4D92F0E94040F9F938F937F9324
:101B30006F930E94790FE8E9F0E00E94900E0E94F6
:101B4000C50E2F913F914F915F910E941F0FDD2392
:101B500051F09058A2EA2AED3FE049EC5FE3D078DB
:101B60005D270E948E0FDF910C94C50E0E94630EBC
:101B700008F481E008950E94CF0D0C94C50E0E94D8
:101B8000BE0E58F00E94B70E40F029F45F3F29F0D6
:101B90000C94870E51110C94F90E0C948D0E0E942A
:101BA000D60E68F39923B1F3552391F3951B550B8A
:101BB000BB27AA2762177307840738F09F5F5F4F20
:101BC000220F331F441FAA1FA9F335D00E2E3AF05F
:101BD000E0E832D091505040E695001CCAF72BD077
:101BE000FE2F29D0660F771F881FBB1F26173707C8
:101BF0004807AB07B0E809F0BB0B802DBF01FF27FA
:101C000093585F4F3AF09E3F510578F00C94870E41
:101C10000C94F90E5F3FE4F3983ED4F386957795E4
:101C20006795B795F7959F5FC9F7880F911D9695B2
:101C3000879597F90895E1E0660F771F881FBB1F0E
:101C4000621773078407BA0720F0621B730B840BBB
:101C5000BA0BEE1F88F7E09508950E94340E689441
:101C6000B1110C94F90E08950E94DE0E88F09F5772
:101C700098F0B92F9927B751B0F0E1F0660F771FB0
:101C8000881F991F1AF0BA95C9F714C0B13091F0A6
:101C90000E94F80EB1E008950C94F80E672F782F8B
:101CA0008827B85F39F0B93FCCF38695779567956B
:101CB000B395D9F73EF490958095709561957F4FD7
:101CC0008F4F9F4F0895990F0008550FAA0BE0E81A
:101CD000FEEF16161706E807F907C0F012161306EE
:101CE000E407F50798F0621B730B840B950B39F42E
:101CF0000A2661F0232B242B252B21F408950A2694
:101D000009F4A140A6958FEF811D811D089597F9D3
:101D10009F6780E870E060E008959FEF80EC089591
:101D2000DF93CF931F930F93FF92EF92DF927B018C
:101D30008C01689406C0DA2EEF010E941F0FFE018D
:101D4000E894A5912591359145915591A6F3EF0120
:101D50000E948E0FFE019701A801DA9469F7DF90C7
:101D6000EF90FF900F911F91CF91DF910895002484
:101D70000A941616170618060906089500240A94F0
:101D800012161306140605060895092E0394000C76
:101D900011F4882352F0BB0F40F4BF2B11F460FF05
:101DA00004C06F5F7F4F8F4F9F4F089557FD90582E
:101DB000440F551F59F05F3F71F04795880F97FB0F
:101DC000991F61F09F3F79F08795089512161306C9
:101DD0001406551FF2CF4695F1DF08C016161706F8
:101DE0001806991FF1CF869571056105089408952D
:101DF000E894BB2766277727CB0197F908950E94BF
:101E0000630E08F48FEF08959B01AC0160E070E071
:101E100080E89FE30C94BB0D0E941F0F0C94C50E2D
:101E20000E94B70E38F00E94BE0E20F0952311F0EC
:101E30000C94870E0C948D0E11240C94F90E0E94B4
:101E4000D60E70F3959FC1F3950F50E0551F629F1A
:101E5000F001729FBB27F00DB11D639FAA27F00D03
:101E6000B11DAA1F649F6627B00DA11D661F829F2A
:101E70002227B00DA11D621F739FB00DA11D621F0F
:101E8000839FA00D611D221F749F3327A00D611D2C
:101E9000231F849F600D211D822F762F6A2F11240E
:101EA0009F5750409AF0F1F088234AF0EE0FFF1F41
:101EB000BB1F661F771F881F91505040A9F79E3F98
:101EC000510580F00C94870E0C94F90E5F3FE4F3FB
:101ED000983ED4F3869577956795B795F795E795EE
:101EE0009F5FC1F7FE2B880F911D9695879597F9F7
:101EF00008959B01AC010C940C0F0E94B70E38F0B2
:101F00000E94BE0E20F039F49F3F19F426F40C9481
:101F10008D0E0EF4E095E7FB0C94870EE92F0E94DE
:101F2000D60E58F3BA17620773078407950720F097
:101F300079F4A6F50C94F80E0EF4E0950B2EBA2F5A
:101F4000A02D0B01B90190010C01CA01A0011124BF
:101F5000FF27591B99F0593F50F4503E68F11A166B
:101F6000F040A22F232F342F4427585FF3CF4695FC
:101F700037952795A795F0405395C9F77EF41F161E
:101F8000BA0B620B730B840BBAF09150A1F0FF0FE8
:101F9000BB1F661F771F881FC2F70EC0BA0F621FD4
:101FA000731F841F48F4879577956795B795F795C4
:101FB0009E3F08F0B0CF9395880F08F09927EE0F59
:101FC00097958795089581E090E0F8940C94E80F38
:041FD000F894FFCFB3
:101FD4001C011C010000000085083C08DD00BB005A
:101FE400CF00CC0800000000DA01AA01A20193018D
:101FF40085018401000000001D068B021D01BB0544
:10200400F0036C06640451011C0510048606AC033D
:0E20140069025A025265616479000D0A0000EB
:00000001FF
